:100000000C9498000C9471040C944A040C94C00055
:100010000C94C0000C94C0000C94C0000C94C00060
:100020000C94C0000C94C0000C94C0000C94C00050
:100030000C94C0000C94C0000C94C0000C94C00040
:100040000C9400040C94C0000C9405030C94DF0283
:100050000C94C0000C94C0000C94C0000C94C00020
:100060000C94C0000C94C000FB14001505150A1573
:100070000F151415191541111E1523154E414E4922
:100080004E495459494E46CDCCCC3D0AD7233C1756
:10009000B7D13877CC2B329595E6241FB14F0A00A3
:1000A0000020410000C84200401C4620BCBE4CCA93
:1000B0001B0E5AAEC59D7472756E2D6272696467AF
:1000C000650A000A000A00454E4420412050414381
:1000D0004B45542C204D6F64653A00000000080029
:1000E00002010000030407000000000000000000FF
:1000F000000000250028002B00000000002400273D
:10010000002A00040404040404040402020202029B
:1001100002030303030303010204081020408001CB
:100120000204081020010204081020000C17EA162F
:1001300011241FBECFEFD8E0DEBFCDBF25E0A4EB7A
:10014000B2E001C01D92A93EB207E1F712E0A0E0C3
:10015000B1E0E0EEF1E402C005900D92A43BB107DE
:10016000D9F710E0C7E9D0E004C02197FE010E9452
:100170006A1BC639D107C9F70E94880D0C94E32089
:100180000C940000CF92DF92EF92FF920F931F9397
:10019000CF93DF936C017A018B01C0E0D0E0CE15E4
:1001A000DF0589F0D8016D918D01D601ED91FC91AB
:1001B0000190F081E02DC6010995892B11F47E0193
:1001C00002C02196ECCFC701DF91CF911F910F9113
:1001D000FF90EF90DF90CF900895FC01538D448DF8
:1001E000252F30E0842F90E0821B930B541710F0E2
:1001F000CF96089501970895FC01918D828D9817EF
:1002000061F0828DDF01A80FB11D5D968C91928DFA
:100210009F5F9F73928F90E008958FEF9FEF0895F7
:10022000FC01918D828D981731F0828DE80FF11DC0
:10023000858D90E008958FEF9FEF0895FC01918DDB
:10024000228D892F90E0805C9F4F821B91098F73D4
:10025000992708958AE195E00E941E0121E0892BEB
:1002600009F420E0822F0895FC01848DDF01A80F9E
:10027000B11DA35ABF4F2C91848D90E001968F73CE
:100280009927848FA689B7892C93A089B1898C91ED
:1002900080648C93938D848D981306C00288F389B3
:1002A000E02D80818F7D80830895EF92FF920F93E0
:1002B0001F93CF93DF93EC0181E0888F9B8D8C8D12
:1002C000981305C0E889F989808185FD24C0F62E40
:1002D0000B8D10E00F5F1F4F0F731127E02E8C8DD9
:1002E000E8120CC00FB607FCFACFE889F9898081C3
:1002F00085FFF5CFCE010E943401F1CF8B8DFE0139
:10030000E80FF11DE35AFF4FF0820B8FEA89FB895A
:100310008081806207C0EE89FF896083E889F9895E
:1003200080818064808381E090E0DF91CF911F9194
:100330000F91FF90EF900895CF93DF93EC01888D9C
:100340008823C9F0EA89FB89808185FD05C0A889D9
:10035000B9898C9186FD0FC00FB607FCF5CF80815F
:1003600085FFF2CFA889B9898C9185FFEDCFCE01A9
:100370000E943401E7CFDF91CF91089580E090E0B3
:10038000892B29F00E942A0181110C940000089504
:100390003FB7F8948091F8049091F904A091FA0481
:1003A000B091FB0426B5A89B05C02F3F19F001961C
:1003B000A11DB11D3FBFBA2FA92F982F8827820FEB
:1003C000911DA11DB11DBC01CD0142E0660F771F3B
:1003D000881F991F4A95D1F7089508950895CF93DE
:1003E000DF931F92CDB7DEB76983DC01ED91FC91FD
:1003F0000280F381E02D41E050E0BE016F5F7F4F4E
:1004000009950F90DF91CF91089508950895CF93A6
:10041000DF931F92CDB7DEB76983DC01ED91FC91CC
:100420000280F381E02D41E050E0BE016F5F7F4F1D
:1004300009950F90DF91CF910895FC0123813481BC
:100440002627022E2295207F2025032E322F22954B
:100450002F700226269532272327220F220F220FE4
:100460002025348323830895089580E090E0089543
:100470000E94FD1D0F931F93CF93DF93EC018881A2
:100480009981009729F02A813B812617370788F444
:100490008B016F5F7F4F0E94331D009761F099833E
:1004A00088831B830A832C813D81232B11F4FC015B
:1004B000108281E001C080E0DF91CF911F910F9108
:1004C0000895EF92FF920F931F93CF93DF93EC0168
:1004D0007B018A01BA010E943A0228813981811187
:1004E0000DC02115310519F0C9010E949B1C19820C
:1004F00018821D821C821B821A8206C01D830C83F7
:10050000B701C9010E940B1ECE01DF91CF911F914F
:100510000F91FF90EF900895FC01808191810C94E0
:100520009B1CFC011182108213821282158214829C
:100530006115710551F0FB0101900020E9F7319739
:10054000AF01461B570B0C9461020895EF92FF9286
:100550000F931F93CF93DF938C017B01C0E0D0E01A
:10056000F701EC0FFD1F6491662361F0D801ED9156
:10057000FC910190F081E02DC8010995892B11F0C3
:100580002196EECFCE01DF91CF911F910F91FF9079
:10059000EF9008956115710579F0FB01019000203D
:1005A000E9F73197AF01461B570BDC01ED91FC9148
:1005B0000280F381E02D099480E090E008951F927D
:1005C0000F920FB60F9211242F933F934F935F9387
:1005D0006F937F938F939F93AF93BF93EF93FF930B
:1005E0008AE195E00E943401FF91EF91BF91AF91B4
:1005F0009F918F917F916F915F914F913F912F913B
:100600000F900FBE0F901F9018951F920F920FB66C
:100610000F9211242F938F939F93EF93FF93E09169
:100620002A05F0912B058081E0913005F09131058C
:1006300082FD12C09081809133058F5F8F7320916E
:100640003405821751F0E0913305F0E0E65EFA4F91
:10065000958F8093330501C08081FF91EF919F9129
:100660008F912F910F900FBE0F901F90189590E0D3
:10067000FC01E552FF4F3491FC01E95EFE4F2491ED
:10068000FC01ED5FFE4FE491EE2309F43BC0332300
:1006900039F1333091F038F43130A9F0323001F5CE
:1006A00084B58F7D12C0373091F03830A1F03430EE
:1006B000B9F4809180008F7D03C0809180008F7796
:1006C000809380000DC084B58F7784BD09C0809170
:1006D000B0008F7703C08091B0008F7D8093B00011
:1006E000F0E0EE0FFF1FE151FF4FA591B4918FB7DE
:1006F000F894EC91611103C020952E2301C02E2B9C
:100700002C938FBF08958F929F92AF92BF92CF92FA
:10071000DF92EF92FF926B017C010E94C8014B01B6
:100720005C01C114D104E104F104F1F00E94C8019C
:10073000DC01CB0188199909AA09BB09883E9340BD
:10074000A105B10570F321E0C21AD108E108F10852
:1007500088EE880E83E0981EA11CB11CC114D10440
:10076000E104F10419F7DDCFFF90EF90DF90CF9017
:10077000BF90AF909F908F9008952FB7F89460919D
:10078000F4047091F5048091F6049091F7042FBF62
:1007900008958F929F92AF92BF92CF92DF92EF9285
:1007A000FF92CF93DF93EC016B010E94BD034B01DD
:1007B0005C01E12CF12C8D819E81DC01ED91FC919D
:1007C0000284F385E02D099597FF0FC00E94BD03B9
:1007D000DC01CB0188199909AA09BB098C159D0573
:1007E000AE05BF0540F38FEF9FEFDF91CF91FF90F4
:1007F000EF90DF90CF90BF90AF909F908F90089533
:100800001F920F920FB60F9211242F933F938F9345
:100810009F93AF93BF938091F4049091F504A091BE
:10082000F604B091F7043091F30423E0230F2D3741
:1008300020F40196A11DB11D05C026E8230F0296E4
:10084000A11DB11D2093F3048093F4049093F5044B
:10085000A093F604B093F7048091F8049091F90402
:10086000A091FA04B091FB040196A11DB11D8093E3
:10087000F8049093F904A093FA04B093FB04BF9199
:10088000AF919F918F913F912F910F900FBE0F903D
:100890001F9018951F920F920FB60F9211242F934D
:1008A0003F934F935F936F937F938F939F93AF93F8
:1008B000BF93EF93FF93E0910201F091030109953B
:1008C000FF91EF91BF91AF919F918F917F916F9128
:1008D0005F914F913F912F910F900FBE0F901F90FE
:1008E00018951F920F920FB60F9211242F933F93DA
:1008F0004F935F936F937F938F939F93AF93BF9328
:10090000EF93FF93E0910001F09101010995FF91B0
:10091000EF91BF91AF919F918F917F916F915F9177
:100920004F913F912F910F900FBE0F901F901895F0
:10093000EF92FF921F93CF93DF931F92CDB7DEB755
:100940007C01162F60E0FC01868549830E943703F5
:10095000F701948585859CBD8DBD1EBD0000498134
:100960000DB407FEFDCF8EB54EBD00000DB407FEE1
:10097000FDCF1EB561E0F70186850E943703812F08
:100980000F90DF91CF911F91FF90EF9008956F77B7
:1009900040E00C949804EF92FF921F93CF93DF9363
:1009A0001F92CDB7DEB77C01DC01ED91FC91008494
:1009B000F185E02D0995892B99F06DE0C7010E9422
:1009C000C704482F60E0C70149830E94C704182F5D
:1009D00049816DE8C7010E949804812F90E002C010
:1009E0008FEF9FEF0F90DF91CF911F91FF90EF90CE
:1009F0000895CF93DF93EC01E881F9810084F185BC
:100A0000E02D0995892B59F08E899F8901969F8B3E
:100A10008E8B60E0CE010E94C70490E002C08FEF91
:100A20009FEFDF91CF910895CF93DF93EC0163E1C6
:100A30000E94C704282F30E08E899F89A901481B96
:100A4000590BCA01DF91CF9108958F929F92AF9277
:100A5000BF92CF92DF92FF920F931F93CF93DF93BA
:100A60001F92CDB7DEB76C01B62E4A0162E27983E0
:100A70000E94C704F82E90E09C01280D391D798151
:100A80002F3F310531F028F02FEF30E04901881A6F
:100A9000990A0B2D172F5801A80CB91C0A151B0514
:100AA00041F0F80141918F0160E8C6010E9498046D
:100AB000F5CF482D4F0D62EAC6010E949804C4018B
:100AC0000F90DF91CF911F910F91FF90DF90CF900A
:100AD000BF90AF909F908F900895CF92DF92EF924A
:100AE000FF920F931F93CF93DF936C017B01FC0167
:100AF000C785D0890C811D810F5F1F4FB801CE01C2
:100B00000E943A02882361F0288139818C819D817D
:100B100068E972E0820F931F0E940B1E1D830C83F5
:100B2000F601C785D089F70184819581E080F18045
:100B30000C811D81E114F104A9F0009799F0080FD0
:100B4000191FB801CE010E943A02882359F028816A
:100B500039818C819D81B701820F931F0E940B1EEA
:100B60001D830C83DF91CF911F910F91FF90EF9028
:100B7000DF90CF900895CF93DF93EC018D819E811C
:100B8000DC01ED91FC910084F185E02D09951816AA
:100B9000190654F48D819E81DC01ED91FC91028453
:100BA000F385E02D0995EACFDF91CF9108952F923B
:100BB0003F924F925F926F927F928F929F92AF92ED
:100BC000BF92CF92DF92EF92FF920F931F93CF933A
:100BD000DF93CDB7DEB72B970FB6F894DEBF0FBE0D
:100BE000CDBF9B878A875B011901FD82EC823A01A8
:100BF000600E711E872C7B82912C44244A94542CC5
:100C00009B01240F351F3F832E839101200F311F3D
:100C100039872887EA85FB858085981608F036C1D4
:100C2000AA85BB8514965C924E92139715968D916A
:100C30009C911697DC01ED91FC910190F081E02DE3
:100C40006FEF09956FEF8A859B850E941D02EA85EB
:100C5000FB8585819681DC01ED91FC910190F0810D
:100C6000E02DAA85BB856C910995EA85FB8560819D
:100C7000CF010E941D02AA85BB8515968D919C917E
:100C80001697DC01ED91FC910190F081E02D682D2B
:100C900009956B818A859B850E941D02EA85FB85EB
:100CA00085819681DC01ED91FC910190F081E02D30
:100CB000662D0995662D8A859B850E941D0275010A
:100CC0002E813F81E216F306B1F0EA85FB8585812E
:100CD00096818701DC01ED91FC910190F081E02D7E
:100CE000D7016D917D010995F80160818A859B8509
:100CF0000E941D02E5CF7101AA85BB8515968D91D5
:100D00009C91169728853985E216F30691F08701A4
:100D1000DC01ED91FC910190F081E02DD7016D9106
:100D20007D010995F80160818A859B850E941D02DD
:100D3000E3CFDC01ED91FC91AA85BB8514966C9103
:100D40000190F081E02D0995EA85FB8585819681EA
:100D5000DC01ED91FC910190F081E02DAA85BB852D
:100D600013966C91099564E670E08A859B850E94D4
:100D7000C9038F3F910509F07DC0EA85FB85548248
:100D800043826FEFCF010E941D0265E070E08A850B
:100D90009B850E94C903AA85BB856C91262F30E0F4
:100DA0008217930709F066C0CD010E941D026AE018
:100DB00070E08A859B850E94C9037C0197FD5AC01B
:100DC000682F8A859B850E941D026AE070E08A85F3
:100DD0009B850E94C9038C0197FD4CC0682F8A85B2
:100DE0009B850E941D02EA821982E981FA810E0F19
:100DF0001F1FE12CF12C65E070E08A859B85E016D1
:100E0000F106A9F0EC14FD0491F00E94C90397FDCE
:100E10000AC0EC81FD81EE0DFF1D8083682F8A855D
:100E20009B850E941D02FFEFEF1AFF0AE4CF0E948C
:100E3000C9037C0197FD1EC065E070E08A859B8533
:100E40000E94C90397FD16C0FE2CEE248E0D9F1D37
:100E5000AA85BB8513962D913C91149728173907C5
:100E600049F48C918F5F8C93C801C016D10680F431
:100E7000C6010EC0939464E670E080E090E00E94AA
:100E800083038A859B850E94BB05C4CE8FEF9FEFAD
:100E90002B960FB6F894DEBF0FBECDBFDF91CF917A
:100EA0001F910F91FF90EF90DF90CF90BF90AF9088
:100EB0009F908F907F906F905F904F903F902F907A
:100EC0000895AF92BF92CF92DF92EF92FF920F936D
:100ED0001F93CF93DF9300D01F92CDB7DEB7FC01F5
:100EE000E85AFF4F20812F3F11F15A019B0147E63D
:100EF0004983319640814A833997CC24C394D12CBD
:100F0000CE0103967C01850142E050E0BE016F5F97
:100F10007F4F808191810E94D7058B81882329F0A2
:100F200090E091958195910904C0C50102C08FEFB1
:100F30009FEF0F900F900F90DF91CF911F910F9126
:100F4000FF90EF90DF90CF90BF90AF9008956F9299
:100F50007F928F929F92AF92BF92CF92DF92EF9249
:100F6000FF920F931F93CF93DF93CDB7DEB72897F0
:100F70000FB6F894DEBF0FBECDBF5C018B01FC0144
:100F80001382128288EE93E0A0E0B0E08483958320
:100F9000A683B78388E191E0918380833501F0E5F2
:100FA0006F0E711CF301318320837501F2E5EF0EA2
:100FB000F11C60EB72E0C70148870E949102450175
:100FC00088E5880E911C4885F401408301151105C0
:100FD00069F0F80101900020E9F73197AF01401B5B
:100FE000510BB801C7010E9461020EC0F701808158
:100FF0009181009711F00E949B1CF70111821082D1
:10100000158214821382128282E7898387E78A839A
:1010100081E68B8386E48E83F4018081FE01E80FF4
:10102000F11D81818F8381E090E0F50197878687AC
:10103000EA5AFF4F00811181F7012081318182E05E
:10104000C82ED12CCE0104967C0142E050E0BE01B6
:101050006A5F7F4FF301808191810E94D7058C8167
:10106000882321F08FEFF401808307C0F501E75A50
:10107000FF4F8D818083F501148628960FB6F89472
:10108000DEBF0FBECDBFDF91CF911F910F91FF90BB
:10109000EF90DF90CF90BF90AF909F908F907F9018
:1010A0006F9008958F929F92AF92BF92CF92DF92EE
:1010B000EF92FF920F931F93CF93DF931F92CDB7C1
:1010C000DEB75C019B014A01DC0152968C918111D3
:1010D00005C07B018B01040F151F31C080E589839A
:1010E000C12CD12CE12CF12C8A0141E050E0BE0151
:1010F0006F5F7F4FF501848595850E94D70522C0DB
:10110000D5015596ED91FC91569753968C91539736
:1011100091E0980F53969C93D7019D917D01E80F24
:10112000F11D9083F50193898489981308C001907B
:10113000F081E02D0680F781E02DC5010995E016CC
:10114000F106F1F6C4010F90DF91CF911F910F913D
:10115000FF90EF90DF90CF90BF90AF909F908F90D7
:101160000895CF92DF92EF92FF920F931F93680141
:10117000790100E010E020E030E00E94D7051F91E7
:101180000F91FF90EF90DF90CF900895AF92BF92B4
:10119000CF92DF92EF92FF920F931F93CF93DF9343
:1011A00000D000D0CDB7DEB75C0182E58B83D501DE
:1011B0001F96ED91FC91509704811581208131811A
:1011C00042E0C42ED12CFE0131967F0141E050E077
:1011D000BE016D5F7F4F1C968D919C911D970E9463
:1011E000D7058A81D5011E968C931E971F960D9167
:1011F0001C9150970115110531F0C8010E948C0215
:10120000C8010E949B1CF501108A178689818111F3
:1012100002C081E0818B32E7F32EF982D5011E9660
:101220008C911E978A8301E010E09E012D5F3F4F55
:1012300042E050E0BE016F5F7F4F1C968D919C9104
:101240001D970E94B1088B81813039F464E670E00B
:1012500080E090E00E948303E0CF87E58B83F50177
:1012600086858C8302E010E09E012F5F3F4F42E0B5
:1012700050E0BE016D5F7F4F848595850E94B10867
:10128000898190E0982F88272A81820F911D0F90E5
:101290000F900F900F90DF91CF911F910F91FF90C2
:1012A000EF90DF90CF90BF90AF900895EF92FF92B4
:1012B0000F931F93CF93DF9300D01F92CDB7DEB76C
:1012C000FC012289211118C07C01138A8FE48983D3
:1012D00080E48B8386858A839F012C5E3F4F00E4E8
:1012E00010E043E050E0BE016F5F7F4F848595853D
:1012F0000E94B108F701828B0F900F900F90DF9141
:10130000CF911F910F91FF90EF900895CF93DF93AE
:10131000EC010E9456098A89882331F08B89C80F15
:10132000D11D8C8990E002C08FEF9FEFDF91CF91AC
:101330000895CF93DF93EC010E9456098A89882390
:1013400059F081508A8B8B8991E0980F9B8BC80F45
:10135000D11D8C8990E002C08FEF9FEFDF91CF917C
:101360000895CF93DF93EC010E9456098A8990E09B
:10137000DF91CF910895EF92FF920F931F93CF9338
:10138000DF9300D01F92CDB7DEB77C0128E5E20ED7
:10139000F11CF70120812F3FB9F026E62983319611
:1013A00020812A83399701E010E09E012D5F3F4F95
:1013B00042E050E0BE016F5F7F4F808191810E94CB
:1013C000B1088FEFF70180830F900F900F90DF919E
:1013D000CF911F910F91FF90EF900895CF93DF93DE
:1013E000EC0188E191E099838883CE010E94BB09DA
:1013F000CE018E5A9F4FDF91CF910C948C02EF92C9
:10140000FF920F931F93CF93DF9300D01F92CDB71E
:10141000DEB7FC012485211128C07C01158687E4F4
:1014200089838FE38B83E75AFF4F80818A839701FB
:10143000205F3F4F399700E410E043E050E0BE01E9
:101440006F5F7F4F808191810E94B1089C01215084
:1014500031092E3F3F4F18F0F701148606C0F701FF
:1014600095859F5F9587815084870F900F900F908F
:10147000DF91CF911F910F91FF90EF900895CF933F
:10148000DF93EC010E94FF098C8590E0DF91CF9102
:101490000895CF93DF93EC010E94FF098C85882388
:1014A00031F08D85C80FD11D888990E002C08FEF83
:1014B0009FEFDF91CF910895CF93DF93EC010E94CE
:1014C000FF098C85882359F081508C878D8591E0A8
:1014D000980F9D87C80FD11D888990E002C08FEFBB
:1014E0009FEFDF91CF910895EF92FF920F931F939B
:1014F000CF93DF9300D0CDB7DEB7FC012685211155
:1015000015C07C01178680E7898380E28A83208961
:10151000318900E210E042E050E0BE016F5F7F4F92
:10152000848595850E94B108F70186870F900F90FA
:10153000DF91CF911F910F91FF90EF900895CF937E
:10154000DF93EC010E94740A8E85882341F08F8519
:10155000E889F989E80FF11D808190E002C08FEFE2
:101560009FEFDF91CF910895CF93DF93EC010E941D
:10157000740A8E85882369F081508E87E889F989FD
:101580008F8591E0980F9F87E80FF11D808190E093
:1015900002C08FEF9FEFDF91CF910895CF93DF933C
:1015A000EC010E94740A8E8590E0DF91CF9108953E
:1015B0000F931F9300E010E020E030E00E94B1089C
:1015C0001F910F9108950F931F93CF93DF9300D036
:1015D000CDB7DEB78C01FC018189882369F087E7EC
:1015E000898386858A8342E050E0BE016F5F7F4F2A
:1015F000848595850E94D80AF801118A0F900F9072
:10160000DF91CF911F910F910895EF92FF920F9369
:101610001F93CF93DF937C018B010E94E30A86E046
:1016200090E00E94061CEC01198218821B821A822B
:101630001D821C828017910751F0F8016081718131
:101640006115710521F0448155810E946102F70105
:10165000D08BC787DF91CF911F910F91FF90EF90B3
:101660000895CF93DF9300D01F92CDB7DEB729E462
:101670002983FC0126852A836B8343E050E0BE0169
:101680006F5F7F4F848595850E94D80A81E090E046
:101690000F900F900F90DF91CF910895CF93DF932C
:1016A000FC01228921110BC0EC01438950E06589BE
:1016B0007689848595850E94D80A81E08B8BDF919D
:1016C000CF910895CF93DF9300D0CDB7DEB7DC0183
:1016D00052968C915297882379F080E589836A83AA
:1016E00042E050E0BE016F5F7F4F1C968D919C9150
:1016F0001D970E94D80A1FC05596ED91FC915697F0
:1017000053968C91539791E0980F53969C935397CF
:10171000E80FF11D608353969C91539754968C91DA
:101720005497981308C0ED91FC9111970680F781AA
:10173000E02DCD01099581E090E00F900F90DF91B1
:10174000CF910895CF93DF93EC01863091052CF073
:101750008D3091058CF4069789F445EC61EB8CEFA4
:1017600094E00E9498044CE067EB8CEF94E00E94B8
:101770009804C6E0D0E00EC0CCE0D0E043EC61EBD2
:101780008CEF94E00E9498044AE067EB8CEF94E0C1
:101790000E9498046EE18CEF94E00E94C70494E0EC
:1017A000CC0FDD1F9A95E1F78F704C2F482B6EE917
:1017B0008CEF94E0DF91CF910C949804AF92BF929C
:1017C000CF92DF92EF92FF920F931F93CF93DF930D
:1017D00070931105609310056B017C01FF0CCC0820
:1017E000DC2C76019B01AC016C2D7C2D8C2D9C2D6D
:1017F00003E10E94CF1BA12CE8E4BE2EF8EECF2E11
:10180000DD24D394E12CF12C00E010E00E94721B47
:10181000F22EB32E142FD52FC62FC72ED82EE92E79
:1018200000E10E94EA1B422F66E88CEF94E00E94E0
:1018300098042F2D3B2D412F5D2F6C2F7C2D8D2D4E
:101840009E2D08E00E94EA1B422F67E88CEF94E08F
:101850000E9498044F2D68E88CEF94E0DF91CF91BF
:101860001F910F91FF90EF90DF90CF90BF90AF90BE
:101870000C94980490E0FC01E95EFE4F2491FC0179
:10188000ED5FFE4F8491882399F090E0880F991FB7
:10189000FC01E750FF4FA591B491FC01E151FF4FCE
:1018A000859194918FB7F894EC91E22BEC938FBFD4
:1018B00008954F925F926F927F928F929F92AF9214
:1018C000BF92CF92DF92EF92FF920F931F93CF932D
:1018D000DF93CDB7DEB7A1970FB6F894DEBF0FBE8A
:1018E000CDBF8C016B01770FEE08FF08F7FE2FC00C
:1018F000DC01ED91FC910190F081E02D6DE2099504
:101900005C0122273327A9012C193D094E095F09E3
:1019100019A2FE01B1967F019AE0492E512C612C4B
:10192000712CCA01B901A30192010E94481B605D9C
:10193000D7016E937D01211531054105510589F7C8
:10194000BD01C8010E94CA02A80EB91E1FC0A7018E
:10195000960119A2FE01B1967F018AE0882E912C92
:10196000A12CB12CCA01B901A50194010E94481B08
:10197000605DD7016E937D0121153105410551054B
:1019800089F7BD01C8010E94CA025C016EEA72E0DB
:10199000C8010E94CA028A0D9B1DA1960FB6F89439
:1019A000DEBF0FBECDBFDF91CF911F910F91FF9092
:1019B000EF90DF90CF90BF90AF909F908F907F90EF
:1019C0006F905F904F900895EF92FF920F931F9347
:1019D000CF93DF93CDB7DEB7CA55D1090FB6F894D0
:1019E000DEBF0FBECDBF7C011C821B8288EE93E060
:1019F000A0E0B0E08D839E83AF83B8870AE211E058
:101A00001A83098387EB95E09E878D871A8A1B8A44
:101A10001C8A61EB72E0CE018B5A9F4F0E949102AB
:101A2000BE016B5A7F4FCE0101960E94050BCE017D
:101A30008B5A9F4F0E948C02B701CE018B5A9F4F49
:101A40000E949102BE016B5A7F4FCE0101960E9407
:101A50006D05CE018B5A9F4F0E948C02CE010196DC
:101A60000E94C6087C011A830983CE0101960E9458
:101A7000E30A81E0EF2809F080E0C65ADF4F0FB695
:101A8000F894DEBF0FBECDBFDF91CF911F910F91B4
:101A9000FF90EF90089510921505109214056DE1D6
:101AA0008CEF94E00E94C704482F4E7F6DE98CEFC5
:101AB00094E00C94980443E861E88CEF94E00E9471
:101AC000980462E18CEF94E00E94C70483FFF9CF91
:101AD00048E062E98CEF94E00E94980481E090E095
:101AE000089541E861E88CEF94E00E9498040E9418
:101AF0004B0D40E06DE88CEF94E00E94980440E0CC
:101B000062EA8CEF94E00E94980481E090E00895EE
:101B1000CF93DF93CDB7DEB7C45CD1090FB6F8948D
:101B2000DEBF0FBECDBF789484B5826084BD84B51E
:101B3000816084BD85B5826085BD85B5816085BDC8
:101B400080916E00816080936E0010928100809180
:101B50008100826080938100809181008160809308
:101B60008100809180008160809380008091B1002D
:101B700084608093B1008091B00081608093B00058
:101B800080917A00846080937A0080917A008260EC
:101B900080937A0080917A00816080937A008091AE
:101BA0007A00806880937A001092C100E091C005AD
:101BB000F091C105A089B18982E08C93A485B58597
:101BC0001C92A685B78580E18C93108EA489B58977
:101BD00086E08C93A289B3898C9180618C93A289D1
:101BE000B3898C9188608C93A289B3898C91806829
:101BF0008C930288F389E02D80818F7D8083809192
:101C0000BE058111D5C081E08093BE0587EB95E0CC
:101C10000E94BB0568EE73E080E090E00E948303C1
:101C20008091BC059091BD05DC01ED91FC91008493
:101C3000F185E02D09951816190644F395E0F92E63
:101C4000EE24E39422E3D22EEAE0F1E0DE01A55A8D
:101C5000BF4F8F2D01900D928A95E1F7E092BF055D
:101C600045E050E0BE01655A7F4F87EB95E00E944A
:101C7000D80A8091BC059091BD05DC01ED91FC91E5
:101C80000190F081E02D63E009956AEF70E080E05B
:101C900090E00E94830365EC70E08091BC05909118
:101CA000BD050E94A6026AEF70E080E090E00E940D
:101CB000830363EC70E08091BC059091BD050E94A8
:101CC000A60264EF71E080E090E00E94830367EB7E
:101CD00070E08091BC059091BD050E94A60264EF62
:101CE00071E080E090E00E94830387EB95E00E9422
:101CF000BB05EFE0F1E0DE0111968F2D01900D9212
:101D00008A95E1F7D092BF0504E010E09E012B54C4
:101D10003F4F45E050E0BE016F5F7F4F87EB95E09E
:101D20000E94B1088F3FBFEF9B0739F468EE73E064
:101D300080E090E00E94830387CFCB54DF4F28815F
:101D4000C55BD0402111FFCF049749F5CA54DF4F3E
:101D50002881C65BD04030E02053310984E6829F61
:101D6000A001839F500D1124C954DF4F2881C75B08
:101D7000D04030E0205331096AE0629FC001639F88
:101D8000900D1124840F951FC854DF4F2881C85B24
:101D9000D04030E020533109820F931F02C084E607
:101DA00090E09093B9058093B80582E38093BF05D6
:101DB00027EB35E041E06CE871E0CE0101960E942E
:101DC000A7074091CA055091CB056091C605709157
:101DD000C705CE0101960E946107CE0101960E94BF
:101DE000BB09CE0101960E94EE091C821B8288EE7F
:101DF00093E0A0E0B0E08D839E83AF83B8878AE252
:101E000091E09A83898387EB95E09E878D871A8A74
:101E10001B8A1C8A3E01EBE56E0E711C80E2D30129
:101E20001D928A95E9F78E010B541F4F60EA71E00D
:101E3000C8010E949102B801CE0101960E94050BD3
:101E4000C8010E948C0264EA71E0C8010E949102FC
:101E5000B801CE0101960E946D05C8010E948C0256
:101E600068EA71E0C8010E949102B801CE010196B2
:101E70000E946D05C8010E948C02CE0101960E944D
:101E8000C60873015301B9E0AB0EB11C6301CE016A
:101E900001960E9456098B89882359F0CA14DB04E5
:101EA00041F0CE0101960E949909F60181936F01DC
:101EB000EECFC3010E94B6176093C7037093C803A7
:101EC0008093C9039093CA0380E2F30111928A952B
:101ED000E9F760EA71E0C8010E949102B801CE0101
:101EE00001960E94050BC8010E948C0264EA71E011
:101EF000C8010E949102B801CE0101960E946D05B1
:101F0000C8010E948C026DE272E0C8010E94910239
:101F1000B801CE0101960E946D05C8010E948C0295
:101F2000CE0101960E94C6085301FAE0AF0EB11C23
:101F30006301CE0101960E9456098B89882359F0CE
:101F4000CA14DB0441F0CE0101960E949909D60122
:101F50008D936D01EECFC3010E94B6176093CD0340
:101F60007093CE038093CF039093D00380E2D3018C
:101F70001D928A95E9F760EA71E0C8010E9491021A
:101F8000B801CE0101960E94050BC8010E948C0287
:101F900064EA71E0C8010E949102B801CE01019685
:101FA0000E946D05C8010E948C0268E472E0C801BD
:101FB0000E949102B801CE0101960E946D05C801F0
:101FC0000E948C02CE0101960E94C6086301B3E014
:101FD000CB0ED11C5301CE0101960E9456098B896C
:101FE000882359F0AC14BD0441F0CE0101960E9443
:101FF0009909F50181935F01EECFC3010E94BA17E1
:102000001816190614F08AE090E09093C6038093A6
:10201000C50380E2D3011D928A95E9F760EA71E079
:10202000C8010E949102B801CE0101960E94050BE1
:10203000C8010E948C0264EA71E0C8010E9491020A
:10204000B801CE0101960E946D05C8010E948C0264
:1020500063EC71E0C8010E949102B801CE010196C3
:102060000E946D05C8010E948C02CE0101960E945B
:10207000C6085301CE0101960E9456098B89882318
:1020800059F0AC14BD0441F0CE0101960E949909AB
:10209000F50181935F01EECFC3010E94BA171816B4
:1020A000190614F089E090E09093CC038093CB0361
:1020B00080E2D3011D928A95E9F760EA71E0C801D8
:1020C0000E949102B801CE0101960E94050BC80141
:1020D0000E948C0264EA71E0C8010E949102B8017A
:1020E000CE0101960E946D05C8010E948C0266ED2A
:1020F00071E0C8010E949102B801CE0101960E94D0
:102100006D05C8010E948C02CE0101960E94C6088E
:102110005301B2E0AB0EB11C6301CE0101960E94E7
:1021200056098B89882359F0CA14DB0441F0CE018B
:1021300001960E949909F60181936F01EECFC301C8
:102140000E94BA179093BA028093B90280E2F30119
:1021500011928A95E9F760EA71E0C8010E94910244
:10216000B801CE0101960E94050BC8010E948C02A5
:1021700064EA71E0C8010E949102B801CE010196A3
:102180000E946D05C8010E948C0269E572E0C801D9
:102190000E949102B801CE0101960E946D05C8010E
:1021A0000E948C02CE0101960E94C6084301F5E010
:1021B0008F0E911C6301CE0101960E9456098B89F6
:1021C000882359F0C814D90441F0CE0101960E9429
:1021D0009909D6018D936D01EECFC3010E94D817E6
:1021E0006093B5027093B6028093B7029093B802E1
:1021F00080E2D3011D928A95E9F760EA71E0C80197
:102200000E949102B801CE0101960E94050BC801FF
:102210000E948C0264EA71E0C8010E949102B80138
:10222000CE0101960E946D05C8010E948C0260E7F4
:1022300072E0C8010E949102B801CE0101960E948D
:102240006D05C8010E948C02CE0101960E94C6084D
:10225000CE0101960E9456098B89882359F0EA1411
:10226000FB0441F0CE0101960E949909F701819388
:102270007F01EECFC3010E94BA178A30910508F49E
:10228000B5C388E498EEA1E0B0E08093BB029093E0
:10229000BC02A093BD02B093BE028AE291E09A8391
:1022A0008983CE0101960E94E30A6091C703709171
:1022B000C8038091C9039091CA030E94121B4B016D
:1022C0005C0180910A050E943A0C80910C050E94E5
:1022D0003A0C60E080910C050E9437036AE070E0E0
:1022E00080E090E00E94830361E080910C050E94F1
:1022F00037036AE070E080E090E00E94830361E0D1
:1023000080910A050E943703FFB6F8948091B402C9
:10231000811124C0EDE0F1E08491E1E2F1E09491DB
:10232000E82FF0E0EE0FFF1FE750FF4FA591B491AB
:10233000EC91E92321F461E08AE00E9437038AE00E
:102340000E943A0C8CB580618CBD8CB580648CBDCC
:102350008DE00E943A0C8BE00E943A0C8091B4020E
:102360008F5F8093B402FFBE62E48CEF94E00E9422
:10237000C7048231A1F540E861E88CEF94E00E9447
:102380009804C501B4010E94DE0B40E06EE88CEFBA
:1023900094E00E94980440E06FE88CEF94E00E9483
:1023A00098046CE08CEF94E00E94C704482F4360CF
:1023B0006CE88CEF94E00E94980444E066EA8CEFAD
:1023C00094E00E9498044FE869E88CEF94E00E9442
:1023D000980441E861E88CEF94E00E9498046091D1
:1023E000C7037091C8038091C9039091CA030E94EA
:1023F000121B0E94DE0B8091C5039091C6030E94C0
:10240000A20B6091BB027091BC028091BD029091C1
:10241000BE020E94A1196B017C0120E030EC43EF69
:1024200055E40E949A1918160CF056C020E030E8C6
:1024300042E256E4C701B6010E949A1918160CF040
:102440004EC020E030EC43E756E4C701B6010E94DD
:102450009A1918160CF046C020E030E842EA56E41B
:10246000C701B6010E949A1918160CF03EC020E070
:1024700034E244EF56E4C701B6010E949A191816D7
:10248000BCF520E034EE42E257E4C701B6010E94F9
:102490009A19181684F520E034E244E757E4C7019E
:1024A000B6010E949A1918164CF520E034E244EF68
:1024B00057E4C701B6010E949A19181614F520E0D6
:1024C00034E244E758E4C701B6010E949A1918168D
:1024D000DCF449E050E01AC040E050E017C041E0B1
:1024E00050E014C042E050E011C043E050E00EC0A4
:1024F00044E050E00BC045E050E008C046E050E04A
:1025000005C047E050E002C048E050E06DE18CEFCC
:1025100094E0CD53DF4F4883C35CD040CC53DF4FB2
:102520005883C45CD0400E94C704CD53DF4F48811C
:10253000C35CD040CC53DF4F5881C45CD040B4E082
:10254000440F551FBA95E1F78F70482B6DE98CEF5A
:1025500094E00E949804E090B902F090BA02F5E08D
:10256000EF16F10444F029E0E216F1043CF0A8E093
:10257000EA2EF12C03C0F5E0EF2EF12C6DE18CEF8B
:1025800094E00E94C70434E0E31AF108EE0CFF1C4B
:10259000817F482F4E296DE98CEF94E00E949804CA
:1025A00044E369EB8CEF94E00E949804C090B5027C
:1025B000D090B602E090B702F090B8027727F7FC0F
:1025C0007A956F2D5E2D4D2D60EA8CEF94E00E9480
:1025D00098044C2D61EA8CEF94E00E94980468EE18
:1025E00073E080E090E00E948303212C3324339435
:1025F00078EE872E73E0972EA12CB12CEAE24E2EB6
:10260000E1E05E2EC8010296CF53DF4F99838883A5
:10261000C15CD0408091F1049091F204009709F0E0
:1026200084C08091C5039091C6030E94A20B0E94B2
:102630004B0D45E861E88CEF94E00E94980462E15C
:102640008CEF94E00E94C704F82E0E944B0D4F2D92
:1026500062E98CEF94E00E949804F6FE27C0F5FC36
:1026600025C01092130510921205809114059091C7
:102670001505892B11F062E201C063E18CEF94E053
:102680000E94C704E82EF12C60E18CEF94E00E94D8
:10269000C704482F6DE88CEF94E00E94980441E84D
:1026A00061E88CEF94E00E94980415C061E08CEF23
:1026B00094E00E94C704863861F040E06DE88CEF3A
:1026C00094E00E94980446E861E88CEF94E00E9450
:1026D0009804E12CF12CF092C003E092BF03EF28A4
:1026E00009F4ADCFAFEBB2E0F1011D923197E9F7FC
:1026F0003FEBC32E32E0D32EE12CF12C8CEF94E093
:102700000E941405892B09F40CC1E114E1E0FE06D6
:1027100009F407C18CEF94E00E94F904D6018D936F
:102720006D01BFEFEB1AFB0AE9CF019709F0CCC0AE
:102730000E94BD036093C2057093C3058093C405D6
:102740009093C5056093C1037093C2038093C30344
:102750009093C4038091C1039091C203A091C303DD
:10276000B091C4034091C2055091C3056091C40566
:102770007091C505841B950BA60BB70B8031974252
:10278000A105B1050CF05BC00E94BD036093C103BD
:102790007093C2038093C3039093C40386E192E0D5
:1027A0000E94E40C811107C068EE73E080E090E0C5
:1027B0000E948303CFCF27EB35E040E066E172E073
:1027C000CE0101960E94A707E1EDF3E0910111927D
:1027D00021503040E1F721EDC22E23E0D22EE12C32
:1027E000F12CCE0101960E94FF098D85882309F402
:1027F000B1C1E114E1E0FE0609F4ACC1CE010196DD
:102800000E945C0AD6018D936D01BFEFEB1AFB0AA3
:10281000E8CF6091C7037091C8038091C90390917C
:10282000CA030E94121B0E94DE0B8091C503909187
:10283000C6030E94A20BCE0101960E94EE091C82E3
:102840001B828D829E82AF82B8865A82498287EB34
:1028500095E09E878D871A8A1B8A1C8A66E272E041
:10286000C3010E949102B301CE0101960E94050BA3
:10287000C3010E948C0269E272E0C3010E949102CE
:10288000B301CE0101960E946D05C3010E948C0226
:1028900066E172E0C3010E949102B301CE0101968C
:1028A0000E946D05C3010E948C02CE0101960E9418
:1028B000C6081092F2041092F1045A824982CE01A5
:1028C00001960E94E30A8FC027EB35E040E061EDFE
:1028D00074E0CE0101960E94A707A1EDB3E0F101DB
:1028E0001D923197E9F791EDC92E93E0D92EE12C95
:1028F000F12CCE0101960E94FF098D85882309F4F1
:10290000BFC1E114E1E0FE0609F4BAC1CE010196AF
:102910000E945C0AD6018D936D01BFEFEB1AFB0A92
:10292000E8CF27EB35E041E061E872E0C3010E94A7
:10293000A70762E972E0C3010E94CA026AE18CEF54
:1029400094E00E94C704D82E609110057091110583
:10295000072E000C880B990B0E94A11924E832EF76
:102960004EE45EE40E949A1987FD72C08DE990E002
:102970006D2D70E0681B790BC3010E94590C6DEE40
:1029800071E0C3010E94CA026091BF037091C0034D
:10299000C3010E94590CC3010E94BB0927EB35E01B
:1029A00041E063EF71E0CE0101960E94A707A70105
:1029B0006FEB72E0CE0101960E946107CE01019695
:1029C0000E94BB098091BF02811145C081E090E067
:1029D0009093F2048093F104CE0101960E94EE09D7
:1029E000C3010E94EE090E94BE0114CEFC01EC5C02
:1029F000FF4F0C946A1B88E79EE1A0E0B0E045CC55
:102A000080EA98E2A0E0B0E040CC80EF9CE3A0E058
:102A1000B0E03BCC80E491E5A0E0B0E036CC82E1D0
:102A20009AE7A0E0B0E031CC84EE92EAA0E0B0E01A
:102A30002CCC84E294EFA0E0B0E027CC80E990EDCC
:102A4000A3E0B0E022CC80E291EAA7E0B0E01DCCA8
:102A500084EA90E08DCF8CE0D8011D928A95E9F749
:102A60008091C3021F928F938091C2021F928F9315
:102A70008091C1021F928F938091C0021F928F9309
:102A8000A1E0B2E0BF93AF931F930F930E94421E49
:102A9000F80101900020E9F73197E01BF10B0FB628
:102AA000F894DEBF0FBECDBF3997E0F0CF53DF4FB4
:102AB00028813981C15CD040D801E12CF12CF8018A
:102AC00001900020E9F7CF01801B910B0397E816D6
:102AD000F90640F4F90181919F018D93FFEFEF1A00
:102AE000FF0AEDCFF801EE0DFF1D1082E1EDF4E0DD
:102AF00080E2DF01282F1D922A95E9F71F930F939B
:102B00002AE032E03F932F931F928F93FF93EF932E
:102B10000E94121E81ED94E00E94E40C0FB6F8941E
:102B2000DEBF0FBECDBF882331F082E090E09093EE
:102B3000F2048093F10467EC70E08CEC95E00E9465
:102B4000A6026091F1047091F2048CEC95E00E9471
:102B5000590C42CFCE0101960E94BB09B3E0EB169F
:102B6000F1045CF468EC70E080E090E00E94830384
:102B7000CE0101960E94EE09EDCD0E94BD03609347
:102B8000C1037093C2038093C3039093C4038091E5
:102B9000C1039091C203A091C303B091C4034091BB
:102BA000C2055091C3056091C4057091C505841B91
:102BB000950BA60BB70B80349F41A105B10594F48A
:102BC0000E94710DA70161ED73E08CEF94E00E940B
:102BD00025050E945B0D61E070E080E090E00E94BE
:102BE0008303CBCF6091CD037091CE038091CF034F
:102BF0009091D0030E94121B0E94DE0B8091CB03A8
:102C00009091CC030E94A20B62E070E080E090E023
:102C10000E9483038091C1039091C203A091C303DA
:102C2000B091C4034091C2055091C3056091C405A1
:102C30007091C505841B950BA60BB70B803E9E4279
:102C4000A105B1050CF0E5CD0E94710DA70161ED64
:102C500073E08CEF94E00E9425050E945B0D61E01B
:102C600070E080E090E00E9483030E94BD036093C7
:102C7000C1037093C2038093C3039093C403CACF6C
:102C8000CE0101960E94BB09E3E0EE16F1041CF4AC
:102C9000CE010196A6CE85E0C82ED12C0E94710DE2
:102CA000A70161ED73E08CEF94E00E9425050E947E
:102CB0005B0D6AE070E080E090E00E948303609129
:102CC000CD037091CE038091CF039091D0030E94E9
:102CD000121B0E94DE0B8091CB039091CC030E94CB
:102CE000A20B64E170E080E090E00E9483030E9408
:102CF000710DA70161ED73E08CEF94E00E94250552
:102D00000E945B0D64E170E080E090E00E9483032C
:102D10006091C7037091C8038091C9039091CA0361
:102D20000E94121B0E94DE0B8091C5039091C60386
:102D30000E94A20B64EF71E080E090E00E948303A8
:102D4000F1E0CF1AD10809F0A9CFD30113961C9254
:102D50001E921297F30184829582A682B7825182D5
:102D6000408287EB95E095878487118A128A138ABF
:102D700066E272E0C8010E949102B801C3010E949C
:102D8000050BC8010E948C0269E272E0C8010E9432
:102D90009102B801C3010E946D05C8010E948C0216
:102DA00061ED74E0C8010E949102B801C3010E9464
:102DB0006D05C8010E948C02C3010E94C6081092D2
:102DC000F2041092F104D3014D925C92C3010E946F
:102DD000E30A5ECF86EC95E00E948C028EE791E0DC
:102DE0009093CD058093CC058091DE0581110BC0B9
:102DF0008091E1059091E205009711F00E949B1CE3
:102E000081E08093DE058091DC059091DD050097DF
:102E100011F00C949B1C0895CF93DF93EAE1F5E049
:102E20001382128248EE53E060E070E044835583E1
:102E3000668377838CE391E09183808385EC90E0D7
:102E40009587848784EC90E09787868780EC90E074
:102E5000918B808B81EC90E0938B828B82EC90E065
:102E6000958B848B86EC90E0978B868B118E128EDF
:102E7000138E148EACEFB4E013961C921E92129730
:102E80008EE491E011969C938E9380E51C968C9332
:102E90001C9781E01D968C931D972AE030E01F96C9
:102EA0003C932E931E9729E030E051963C932E934D
:102EB000509722E030E053963C932E9352975596CC
:102EC0001C921E92549757961C921E925697599692
:102ED0001C921E9258975B961C921E925A971496BB
:102EE0001D921D921D921C921797C7EBD5E0D093AF
:102EF0001905C0931805ACECB5E013961C921E9210
:102F0000129714964D935D936D937C9317972EE7CC
:102F100031E011963C932E931D96DC93CE931C9733
:102F20001E961C921E971F961C921F9751961C92DC
:102F30001E92509752968C931882FE83ED831F82C7
:102F40001886FA87E9876AE972E086EC95E00E94C4
:102F500091020E94BD036093C2057093C3058093E4
:102F6000C4059093C505DF91CF9108956627772713
:102F70000C941C18FC0188279927E8942191203291
:102F8000E9F3293010F02E30C8F32B3241F02D3206
:102F900039F4689404C00E941418820F911D219185
:102FA00020532A30C0F31EF4909581959F4F0895C9
:102FB0001F93FC0199278827BC01E89411911032D6
:102FC000E9F3193010F01E30C8F31B3251F01D32F6
:102FD00049F4689406C00E94FF17610F711D811D9E
:102FE000911D119110531A30B0F33EF490958095D5
:102FF000709561957F4F8F4F9F4F1F910895592F67
:10300000482F372F262F660F771F881F991F660FAF
:10301000771F881F991F620F731F841F951F660FEC
:10302000771F881F991F08957AE0979F902D879F9B
:10303000802D910D11240895A0E0B0E0E2E2F8E1C6
:103040000C94D01AEC017B016115710519F0DB01BC
:103050008D939C938E010F5F1F4F7880872D90E09A
:103060000E947919892B11F0E801F4CFBDE27B129F
:1030700005C00F5F1F4F7980C1E008C0EBE27E12F0
:1030800004C08E010E5F1F4F7980C0E06801F1E03F
:10309000CF1AD10843E050E064E870E0C6010E9416
:1030A0008219892BF1F4680122E0C20ED11C45E09F
:1030B00050E06FE770E0C6010E948219892B21F46D
:1030C000680187E0C80ED11CE114F10419F0D701A2
:1030D000CD92DC92C111FFC060E070E080E89FE714
:1030E00003C143E050E06CE770E0C6010E94821922
:1030F000892B51F4E114F10409F4F2C00E5F1F4F63
:10310000F70111830083ECC0680160E070E0CB013F
:1031100000E010E0F601D0EDD70DDA3058F52C2F95
:103120002260622E2C2F2870C2FF05C0211128C0FA
:103130000F5F1F4F25C0222311F001501109A5E098
:10314000B0E09B01AC010E94C11A4B015C01880CEC
:10315000991CAA1CBB1CC501B4016D0F711D811DFA
:10316000911D6839A9E97A078A07A9E19A0740F011
:10317000C66005C0DE3F51F4C3FD44C0C8606C2E7C
:10318000BFEFCB1ADB0A7080C62DC4CF2D2F2F7D49
:103190002531C1F540814D3211F4C06106C04B327A
:1031A00021F0319621E030E006C03296D60111962A
:1031B0004C9122E030E0A0EDA40FAA3018F0E21B01
:1031C000F30B20C040E050E04038BCE05B075CF40B
:1031D0009A01220F331F220F331F420F531F440F38
:1031E000551F4A0F511D3196DF0111972C91A0ED0B
:1031F000A20FAA3048F3C4FF03C05195419551096D
:10320000040F151FC1FF07C0E114F10421F031972D
:10321000D701ED93FC930E949F19C370C33019F03E
:103220006B017C0106C06B017C01F7FAF094F7F8A2
:10323000F09420E030E0A901C701B6010E949A197C
:10324000882309F445C017FF06C01195019511099F
:10325000CBE9D0E002C0C3EBD0E05E01B8E1AB1A2D
:10326000B1084601BE2DAF2D90E2E92EF12C0E15CE
:103270001F0584F0FE012591359145915491B401CB
:103280008B2F9A2F0E94001A4B01B82FA92F0E19CD
:103290001F09EDCF2497F594E794CA15DB0539F79C
:1032A0006401EB2EFA2E8E2D880F8F2D881F8F3FF5
:1032B00049F020E030E0A901C701B6010E949A1947
:1032C000811106C082E290E09093E4058093E305CB
:1032D000C701B60109C060E070E080E89FEF04C05C
:1032E00060E070E080EC9FE7CDB7DEB7EEE00C94D5
:1032F000EC1A91110C946D1A803219F08950855096
:10330000C8F70895FB01DC014150504088F08D91D1
:1033100081341CF08B350CF4805E659161341CF0B7
:103320006B350CF4605E861B611171F3990B089587
:10333000881BFCCF0E94DC1908F481E00895E89412
:1033400009C097FB3EF490958095709561957F4FED
:103350008F4F9F4F9923A9F0F92F96E9BB2793959B
:10336000F695879577956795B795F111F8CFFAF4AB
:10337000BB0F11F460FF1BC06F5F7F4F8F4F9F4FDC
:1033800016C0882311F096E911C0772321F09EE83A
:10339000872F762F05C0662371F096E8862F70E0A0
:1033A00060E02AF09A95660F771F881FDAF7880F7A
:1033B0009695879597F90895990F0008550FAA0BD0
:1033C000E0E8FEEF16161706E807F907C0F0121638
:1033D0001306E407F50798F0621B730B840B950B3B
:1033E00039F40A2661F0232B242B252B21F4089590
:1033F0000A2609F4A140A6958FEF811D811D08952D
:103400000E94131A0C94871A0E94791A38F00E94AD
:10341000801A20F0952311F00C94701A0C94761AEF
:1034200011240C94BB1A0E94981A70F3959FC1F353
:10343000950F50E0551F629FF001729FBB27F00D62
:10344000B11D639FAA27F00DB11DAA1F649F6627B7
:10345000B00DA11D661F829F2227B00DA11D621F06
:10346000739FB00DA11D621F839FA00D611D221FC0
:10347000749F3327A00D611D231F849F600D211DA4
:10348000822F762F6A2F11249F5750409AF0F1F027
:1034900088234AF0EE0FFF1FBB1F661F771F881F90
:1034A00091505040A9F79E3F510580F00C94701A3E
:1034B0000C94BB1A5F3FE4F3983ED4F3869577955E
:1034C0006795B795F795E7959F5FC1F7FE2B880F36
:1034D000911D9695879597F90895992788270895BE
:1034E00097F99F6780E870E060E008959FEF80ECB7
:1034F000089500240A94161617061806090608955A
:1035000000240A9412161306140605060895092EBF
:103510000394000C11F4882352F0BB0F40F4BF2B2E
:1035200011F460FF04C06F5F7F4F8F4F9F4F08956E
:1035300057FD9058440F551F59F05F3F71F0479564
:10354000880F97FB991F61F09F3F79F08795089549
:10355000121613061406551FF2CF4695F1DF08C068
:10356000161617061806991FF1CF86957105610585
:1035700008940895E894BB2766277727CB0197F92D
:1035800008950E94031BA59F900DB49F900DA49FCA
:10359000800D911D112408952F923F924F925F92BA
:1035A0006F927F928F929F92AF92BF92CF92DF9253
:1035B000EF92FF920F931F93CF93DF93CDB7DEB7B8
:1035C000CA1BDB0B0FB6F894DEBF0FBECDBF09944C
:1035D0002A88398848885F846E847D848C849B84A3
:1035E000AA84B984C884DF80EE80FD800C811B81B1
:1035F000AA81B981CE0FD11D0FB6F894DEBF0FBEE0
:10360000CDBFED010895A29FB001B39FC001A39F5C
:10361000700D811D1124911DB29F700D811D11240B
:10362000911D08950E94191B6894B1110C94BB1A46
:1036300008950E94A01A88F09F5798F0B92F9927F3
:10364000B751B0F0E1F0660F771F881F991F1AF08D
:10365000BA95C9F714C0B13091F00E94BA1AB1E01E
:1036600008950C94BA1A672F782F8827B85F39F01D
:10367000B93FCCF3869577956795B395D9F73EF426
:1036800090958095709561957F4F8F4F9F4F0895CE
:10369000A1E21A2EAA1BBB1BFD010DC0AA1FBB1F56
:1036A000EE1FFF1FA217B307E407F50720F0A21BC8
:1036B000B30BE40BF50B661F771F881F991F1A9435
:1036C00069F760957095809590959B01AC01BD015F
:1036D000CF010895EE0FFF1F0590F491E02D09949E
:1036E000689401C0E8948F929F92CF93DF930E94D9
:1036F0007E1BDF91CF919F908F900895882499240D
:10370000F401E401B0E49F93AA279A158B049C046A
:10371000ED05FE05CF05D007A10798F4AD2FDC2FEE
:10372000CF2FFE2FE92D982C892E982F872F762FBB
:10373000652F542F432F322F2227B85031F7BF91D6
:1037400027C01B2EBF91BB27220F331F441F551FBD
:10375000661F771F881F991F881C991CEE1FFF1F6B
:10376000CC1FDD1FAA1FBB1F8A149B04EC05FD059F
:10377000CE05DF05A007B10748F08A189B08EC09C1
:10378000FD09CE09DF09A00BB10B21601A94E1F607
:103790002EF49401AF01BE01CD01000C08950F93EA
:1037A000083090F0982F872F762F652F542F432FB6
:1037B000322F22270850F4CF220F331F441F551FEA
:1037C000661F771F881F991F0A95B2F70F910895FA
:1037D00097FB10F8169400080F93083098F00850E3
:1037E000232F342F452F562F672F782F892F902D79
:1037F000F4CF059497958795779567955795479555
:10380000379527950A95AAF70F910895CF93DF93DF
:103810008230910510F482E090E0E091E705F091AC
:10382000E80520E030E0C0E0D0E0309711F14081C1
:10383000518148175907C0F04817590761F4828130
:103840009381209719F09B838A832BC09093E8057E
:103850008093E70526C02115310519F0421753075B
:1038600018F49A01BE01DF01EF010280F381E02D1F
:10387000DCCF2115310509F1281B390B2430310526
:1038800090F412968D919C9113976115710521F01A
:10389000FB019383828304C09093E8058093E7053E
:1038A000FD01329644C0FD01E20FF31F8193919315
:1038B000225031092D933C933AC02091E505309177
:1038C000E605232B41F42091060130910701309346
:1038D000E6052093E50520910401309105012115AD
:1038E000310541F42DB73EB74091080150910901CF
:1038F000241B350BE091E505F091E605E217F3078F
:10390000A0F42E1B3F0B2817390778F0AC014E5F4F
:103910005F4F2417350748F04E0F5F1F5093E605A1
:103920004093E5058193919302C0E0E0F0E0CF0180
:10393000DF91CF9108950F931F93CF93DF9300975B
:1039400009F48CC0FC013297138212820091E705C2
:103950001091E8050115110581F420813181820F54
:10396000931F2091E5053091E6052817390779F571
:10397000F093E605E093E50571C0D80140E050E022
:10398000AE17BF0750F412962D913C911397AD01DD
:103990002115310509F1D901F3CF9D01DA013383F6
:1039A000228360817181860F971F8217930769F4C4
:1039B000EC0128813981260F371F2E5F3F4F31835D
:1039C00020838A819B8193838283452B29F4F09302
:1039D000E805E093E70542C01396FC93EE93129737
:1039E000ED01499159919E01240F351FE217F3070C
:1039F00071F480819181840F951F029611969C939A
:103A00008E938281938113969C938E931297E0E01C
:103A1000F0E0D80112968D919C911397009719F0C0
:103A2000F8018C01F6CF8D919C9198012E5F3F4F4C
:103A3000820F931F2091E5053091E605281739077D
:103A400069F4309729F41092E8051092E70502C056
:103A5000138212821093E6050093E505DF91CF9162
:103A60001F910F910895A0E0B0E0E9E3FDE10C940F
:103A7000D01AEC01009721F4CB010E94061CB8C0BB
:103A8000FC01E60FF71F9C0122503109E217F307F2
:103A900008F4ACC0D9010D911C91119706171707B6
:103AA000B0F00530110508F49FC0C80104978617CF
:103AB000970708F499C002501109061B170B0193D0
:103AC00011936D937C93CF010E949B1C8DC05B0171
:103AD000A01AB10A4C01800E911EA091E705B09189
:103AE000E80540E050E0E12CF12C109709F44AC0C1
:103AF000A815B905D1F56D907C901197630182E00E
:103B0000C80ED11CCA14DB0480F1A3014A195B0959
:103B10006A0182E0C80ED11C1296BC9012971396CF
:103B2000AC91B5E0CB16D10440F0B282A3835183AF
:103B30004083D9016D937C930AC00E5F1F4FC30170
:103B4000800F911FF90191838083EB2DFA2FE114EF
:103B5000F10431F0D7011396FC93EE93129744C011
:103B6000F093E805E093E7053FC08D919C91119794
:103B70004817590708F4AC017D0112960D90BC91CD
:103B8000A02DB3CF8091E5059091E60588159905A4
:103B9000E1F446175707C8F480910401909105019C
:103BA000009741F48DB79EB74091080150910901EB
:103BB000841B950BE817F907C8F4F093E605E0932A
:103BC000E505F901718360830FC0CB010E94061CDB
:103BD0007C01009759F0A801BE010E94021ECE018F
:103BE0000E949B1CC70104C0CE0102C080E090E08F
:103BF000CDB7DEB7EEE00C94EC1A81E090E0F894DB
:103C00000C94E320FB01DC0102C001900D924150B5
:103C10005040D8F70895FB01DC0101900D9200207F
:103C2000E1F70895AEE0B0E0E8E1FEE10C94DA1AC5
:103C30000D891E898F89988D26E02C831A8309832C
:103C400097FF02C080E090E801979E838D83AE01CC
:103C5000455E5F4F698D7A8DCE0101960E94651E8B
:103C60004D815E8157FD0AC02F8138854217530769
:103C70000CF49A01F801E20FF31F10822E96E4E093
:103C80000C94F61AAEE0B0E0E8E4FEE10C94DA1A27
:103C90000D891E8986E08C831A8309838FEF9FE745
:103CA0009E838D83AE01475E5F4F6F89788DCE0115
:103CB00001960E94651E2F813885F801E20FF31FDF
:103CC00010822E96E4E00C94F61AACE0B0E0EBE63D
:103CD000FEE10C94CC1A7C016B018A01FC01178275
:103CE0001682838181FFBDC1CE0101964C01F7018F
:103CF0009381F60193FD859193FF81916F01882354
:103D000009F4ABC1853239F493FD859193FF81911C
:103D10006F01853229F4B70190E00E944D20E7CF72
:103D2000512C312C20E02032A0F48B3269F030F499
:103D3000803259F0833269F420612CC08D3239F021
:103D4000803339F4216026C02260246023C02860BB
:103D500021C027FD27C030ED380F3A3078F426FF18
:103D600006C0FAE05F9E300D1124532E13C08AE086
:103D7000389E300D1124332E20620CC08E3221F477
:103D800026FD6BC1206406C08C3611F4206802C089
:103D9000883641F4F60193FD859193FF81916F017F
:103DA0008111C1CF982F9F7D9554933028F40C5FDB
:103DB0001F4FFFE3F9830DC0833631F0833771F075
:103DC000833509F05BC022C0F801808189830E5FD2
:103DD0001F4F44244394512C540115C03801F2E084
:103DE0006F0E711CF801A080B18026FF03C0652D05
:103DF00070E002C06FEF7FEFC5012C870E94422068
:103E00002C0183012C852F77222E17C03801F2E078
:103E10006F0E711CF801A080B18026FF03C0652DD4
:103E200070E002C06FEF7FEFC5012C870E94372042
:103E30002C012C852068222E830123FC1BC0832D9E
:103E400090E048165906B0F4B70180E290E00E9475
:103E50004D203A94F4CFF50127FC859127FE8191FE
:103E60005F01B70190E00E944D2031103A94F1E0DB
:103E70004F1A51084114510471F7E5C0843611F00E
:103E8000893639F5F80127FF07C060817181828189
:103E900093810C5F1F4F08C060817181072E000C59
:103EA000880B990B0E5F1F4F2F76722E97FF09C05C
:103EB00090958095709561957F4F8F4F9F4F2068AB
:103EC000722E2AE030E0A4010E948520A82EA818B6
:103ED00044C0853729F42F7EB22E2AE030E025C079
:103EE000F22FF97FBF2E8F36C1F018F4883579F0A4
:103EF000B4C0803719F0883721F0AFC02F2F206170
:103F0000B22EB4FE0DC08B2D8460B82E09C024FFE4
:103F10000AC09F2F9660B92E06C028E030E005C089
:103F200020E130E002C020E132E0F801B7FE07C036
:103F300060817181828193810C5F1F4F06C0608117
:103F4000718180E090E00E5F1F4FA4010E948520E8
:103F5000A82EA818FB2DFF777F2E76FE0BC0372DDD
:103F60003E7FA51450F474FE0AC072FC08C0372DC1
:103F70003E7E05C0BA2C372D03C0BA2C01C0B52C2B
:103F800034FF0DC0FE01EA0DF11D8081803311F474
:103F9000397E09C032FF06C0B394B39404C0832FA6
:103FA000867809F0B39433FD13C030FF06C05A2C55
:103FB000B31418F4530C5B18B32CB31468F4B701A2
:103FC00080E290E03C870E944D20B3943C85F5CF81
:103FD000B31410F43B1801C0312C34FF12C0B701E8
:103FE00080E390E03C870E944D203C8532FF17C063
:103FF00031FD03C088E790E002C088E590E0B7019A
:104000000CC0832F867859F031FF02C08BE201C0CB
:1040100080E237FD8DE2B70190E00E944D20A514AB
:1040200038F4B70180E390E00E944D205A94F7CF16
:10403000AA94F401EA0DF11D8081B70190E00E947D
:104040004D20A110F5CF332009F451CEB70180E205
:1040500090E00E944D203A94F6CFF7018681978137
:1040600002C08FEF9FEF2C96E2E10C94E81AFC015E
:104070000590615070400110D8F7809590958E0F93
:104080009F1F0895FC016150704001900110D8F706
:10409000809590958E0F9F1F08950F931F93CF9338
:1040A000DF93FB01238121FD03C08FEF9FEF28C029
:1040B00022FF16C04681578124813581421753075C
:1040C00044F4A081B1819D012F5F3F4F3183208354
:1040D0008C93268137812F5F3F4F3783268310C013
:1040E000EB01092F182F0084F185E02D0995892B0C
:1040F000E1F68E819F8101969F838E83812F902F81
:10410000DF91CF911F910F910895FA01AA272830CE
:1041100051F1203181F1E8946F936E7F6E5F7F4F94
:104120008F4F9F4FAF4FB1E03ED0B4E03CD0670F10
:10413000781F891F9A1FA11D680F791F8A1F911D63
:10414000A11D6A0F711D811D911DA11D20D009F4B3
:1041500068943F912AE0269F11243019305D3193F5
:10416000DEF6CF010895462F4770405D4193B3E0DE
:104170000FD0C9F7F6CF462F4F70405D4A3318F085
:10418000495D31FD4052419302D0A9F7EACFB4E036
:10419000A6959795879577956795BA95C9F70097EE
:1041A0006105710508959B01AC010A2E069457958F
:1041B000479537952795BA95C9F7620F731F841FE6
:1041C000951FA01D089510E0C7E9D0E004C0FE01CE
:1041D0000E946A1B2196C839D107C9F7F894FFCF0E
:1041E000ED01ED010000E905800058585858585875
:1041F0005831303000000000070261073502060226
:104200003F0A5C0A490A00000000310BC200350277
:104210000502B10999098609000000005501C20094
:10422000ED009C011E01FC00100100000000EF01E8
:1042300025053502EE011405F904CB040000000049
:104240003802C20035023402380238023802000057
:1042500000003802C2003502340200000000620B88
:10426000520835024E0BCE0AB40A9F0A2F766172AD
:104270002F6176722F66775F76657273696F6E0055
:1042800075636900676574006C6F726177616E2E8B
:10429000726164696F2E72785F6672657175656EA2
:1042A0006379006C6F726177616E2E726164696F01
:1042B0002E54585346006C6F726177616E2E726196
:1042C00064696F2E636F6465726174650073697AE7
:1042D000653D002F7661722F696F742F6461746180
:1042E000002578257825782578002F7661722F694A
:1042F0006F742F2573002F7661722F696F742F648E
:104300006C6461746100726D002D7266006C6F7276
:104310006177616E2E726164696F2E74785F667268
:10432000657175656E6379006C6F726177616E2E71
:10433000726164696F2E5346006C6F726177616EB3
:104340002E726164696F2E707265616D626C6500BA
:104350006C6F726177616E2E726164696F2E425765
:10436000002F7661722F696F742F636667646174C2
:104370006100727373693D00FE0073696E676C655E
:104380005F706B745F6677645F76303033000D0A60
:04439000006C73004A
:00000001FF
